:100000000C942A000C9438020C9447000C9447007E
:100010000C9447000C9447000C9447000C94470044
:100020000C9447000C9447000C945F020C9447001A
:100030000C9447000C9447000C9447000C94470024
:100040000C9412010C9447000C9447000C94470048
:100050000C94470011241FBECFE5D8E0DEBFCDBF12
:1000600010E0A0E6B0E0E0E6F5E002C005900D92F9
:10007000A036B107D9F720E0A0E6B0E001C01D929C
:10008000AE36B207E1F70E9449000C94AE020C9420
:1000900000000E94D6008DE40E94580081E40E9476
:1000A00058008DE40E94580081E40E945800FFCF60
:1000B000CF93C82F61E085E10E94AF018BB39C2FE5
:1000C000907F8F70892B8BBB61E086E10E94AF012E
:1000D0008FE99FE00197F1F700C0000060E086E142
:1000E0000E94AF018FE99FE00197F1F700C0000087
:1000F0002BB330E1C39FC0011124922F9F70892B35
:100100008BBB61E086E10E94AF018FE99FE0019720
:10011000F1F700C0000060E086E10E94AF018FE1CE
:100120009EE40197F1F700C00000CF910895CF93AE
:10013000C82F61E085E10E94AF018BB39C2F907FB7
:100140008F70892B8BBB61E086E10E94AF018FE944
:100150009FE00197F1F700C0000060E086E10E9497
:10016000AF018FE99FE00197F1F700C000002BB3CA
:1001700030E1C39FC0011124922F9F70892B8BBB4C
:1001800061E086E10E94AF018FE99FE00197F1F7FE
:1001900000C0000060E086E10E94AF018FE19EE4B4
:1001A0000197F1F700C00000CF91089561E08EE063
:1001B0000E94260161E08FE00E94260161E080E15B
:1001C0000E94260161E081E10E94260161E085E153
:1001D0000E94260161E086E10E94260161E087E13C
:1001E0000E94260160E087E10E94AF012FEF83EDBE
:1001F00090E3215080409040E1F700C0000083E38D
:100200000E94970082E30E94970088E20E94970074
:100210008CE00E94970081E00E94970082E00E949B
:10022000970008951F920F920FB60F9211248F938B
:100230009F9384B195B190936100809360009F91EA
:100240008F910F900FBE0F901F9018959DEC899F76
:10025000912D1124292F269526952695220F322F90
:10026000330F330F230F821B282F96959695969563
:10027000613019F06230C1F108959230A1F018F4A4
:10028000913031F008959330C9F0943011F1089510
:100290003AB381E090E002C0880F991F2A95E2F7F7
:1002A000832B8ABB089537B381E090E002C0880FAA
:1002B000991F2A95E2F7832B87BB089534B381E019
:1002C00090E002C0880F991F2A95E2F7832B84BB28
:1002D000089531B381E090E002C0880F991F2A95FC
:1002E000E2F7832B81BB08959230A9F018F4913086
:1002F00031F008959330D9F0943029F108953AB34C
:1003000081E090E002C0880F991F2A95E2F780955E
:1003100083238ABB089537B381E090E002C0880F41
:10032000991F2A95E2F78095832387BB089534B3FC
:1003300081E090E002C0880F991F2A95E2F780952E
:10034000832384BB089531B381E090E002C0880F1D
:10035000991F2A95E2F78095832381BB08959DEC30
:10036000899F912D1124292F269526952695220FB8
:10037000322F330F330F230F821B282F969596951C
:1003800096956623D1F1613009F071C09230A1F0E9
:1003900018F4913031F008959330C9F0943011F190
:1003A00008953BB381E090E002C0880F991F2A9521
:1003B000E2F7832B8BBB089538B381E090E002C055
:1003C000880F991F2A95E2F7832B88BB089535B3D0
:1003D00081E090E002C0880F991F2A95E2F7832BF5
:1003E00085BB089532B381E090E002C0880F991F69
:1003F0002A95E2F7832B82BB08959230A9F018F476
:10040000913031F008959330D9F0943029F1089566
:100410003BB381E090E002C0880F991F2A95E2F774
:10042000809583238BBB089538B381E090E002C0B0
:10043000880F991F2A95E2F78095832388BB08953A
:1004400035B381E090E002C0880F991F2A95E2F74A
:100450008095832385BB089532B381E090E002C08C
:10046000880F991F2A95E2F78095832382BB089510
:100470001F920F920FB60F9211242F933F934F9319
:100480005F936F937F938F939F93AF93BF93EF93FC
:10049000FF93E0916C00F0916D000995FF91EF9151
:1004A000BF91AF919F918F917F916F915F914F918C
:1004B0003F912F910F900FBE0F901F9018951F9294
:1004C0000F920FB60F9211242F933F934F935F9388
:1004D0006F937F938F939F93AF93BF93EF93FF930C
:1004E0008091620090916300A0916400B0916500DA
:1004F0000196A11DB11D8093620090936300A093AB
:100500006400B0936500409168005091690060916B
:100510006A0070916B0084179507A607B70769F406
:10052000E0916600F09167000995109262001092C8
:1005300063001092640010926500FF91EF91BF91EB
:10054000AF919F918F917F916F915F914F913F916B
:100550002F910F900FBE0F901F901895F894FFCF1A
:00000001FF
